{
  "contractName": "Crowdsale",
  "abi": [
    {
      "constant": true,
      "inputs": [],
      "name": "endTime",
      "outputs": [
        {
          "name": "",
          "type": "uint256"
        }
      ],
      "payable": false,
      "stateMutability": "view",
      "type": "function"
    },
    {
      "constant": true,
      "inputs": [],
      "name": "totalTokensSold",
      "outputs": [
        {
          "name": "",
          "type": "uint256"
        }
      ],
      "payable": false,
      "stateMutability": "view",
      "type": "function"
    },
    {
      "constant": true,
      "inputs": [],
      "name": "buyers",
      "outputs": [
        {
          "name": "",
          "type": "address"
        }
      ],
      "payable": false,
      "stateMutability": "view",
      "type": "function"
    },
    {
      "constant": true,
      "inputs": [],
      "name": "startTime",
      "outputs": [
        {
          "name": "",
          "type": "uint256"
        }
      ],
      "payable": false,
      "stateMutability": "view",
      "type": "function"
    },
    {
      "constant": true,
      "inputs": [],
      "name": "tokens",
      "outputs": [
        {
          "name": "",
          "type": "address"
        }
      ],
      "payable": false,
      "stateMutability": "view",
      "type": "function"
    },
    {
      "constant": true,
      "inputs": [],
      "name": "totalMoneyObtained",
      "outputs": [
        {
          "name": "",
          "type": "uint256"
        }
      ],
      "payable": false,
      "stateMutability": "view",
      "type": "function"
    },
    {
      "constant": true,
      "inputs": [],
      "name": "worth",
      "outputs": [
        {
          "name": "",
          "type": "uint256"
        }
      ],
      "payable": false,
      "stateMutability": "view",
      "type": "function"
    },
    {
      "inputs": [
        {
          "name": "_totalSupply",
          "type": "uint256"
        },
        {
          "name": "_saleTime",
          "type": "uint256"
        }
      ],
      "payable": false,
      "stateMutability": "nonpayable",
      "type": "constructor"
    },
    {
      "payable": false,
      "stateMutability": "nonpayable",
      "type": "fallback"
    },
    {
      "anonymous": false,
      "inputs": [
        {
          "indexed": false,
          "name": "_purchaser",
          "type": "address"
        },
        {
          "indexed": false,
          "name": "_value",
          "type": "uint256"
        }
      ],
      "name": "Purchase",
      "type": "event"
    },
    {
      "anonymous": false,
      "inputs": [
        {
          "indexed": false,
          "name": "_refunder",
          "type": "address"
        },
        {
          "indexed": false,
          "name": "_value",
          "type": "uint256"
        }
      ],
      "name": "Refund",
      "type": "event"
    },
    {
      "constant": false,
      "inputs": [],
      "name": "timeLeft",
      "outputs": [
        {
          "name": "",
          "type": "uint256"
        }
      ],
      "payable": false,
      "stateMutability": "nonpayable",
      "type": "function"
    },
    {
      "constant": false,
      "inputs": [
        {
          "name": "_value",
          "type": "uint256"
        }
      ],
      "name": "mintTokens",
      "outputs": [
        {
          "name": "success",
          "type": "bool"
        }
      ],
      "payable": false,
      "stateMutability": "nonpayable",
      "type": "function"
    },
    {
      "constant": false,
      "inputs": [
        {
          "name": "_value",
          "type": "uint256"
        }
      ],
      "name": "burnTokens",
      "outputs": [
        {
          "name": "success",
          "type": "bool"
        }
      ],
      "payable": false,
      "stateMutability": "nonpayable",
      "type": "function"
    },
    {
      "constant": false,
      "inputs": [],
      "name": "buyToken",
      "outputs": [
        {
          "name": "success",
          "type": "bool"
        }
      ],
      "payable": true,
      "stateMutability": "payable",
      "type": "function"
    },
    {
      "constant": false,
      "inputs": [
        {
          "name": "_value",
          "type": "uint256"
        }
      ],
      "name": "refundToken",
      "outputs": [
        {
          "name": "success",
          "type": "bool"
        }
      ],
      "payable": true,
      "stateMutability": "payable",
      "type": "function"
    },
    {
      "constant": false,
      "inputs": [],
      "name": "transferOwner",
      "outputs": [
        {
          "name": "success",
          "type": "bool"
        }
      ],
      "payable": false,
      "stateMutability": "nonpayable",
      "type": "function"
    },
    {
      "constant": false,
      "inputs": [],
      "name": "enterQueue",
      "outputs": [],
      "payable": false,
      "stateMutability": "nonpayable",
      "type": "function"
    }
  ],
  "bytecode": "0x6060604052341561000f57600080fd5b604051604080611adb83398101604052808051906020019091908051906020019091905050336000806101000a81548173ffffffffffffffffffffffffffffffffffffffff021916908373ffffffffffffffffffffffffffffffffffffffff1602179055508161007d610104565b80828152602001915050604051809103906000f080151561009d57600080fd5b600260006101000a81548173ffffffffffffffffffffffffffffffffffffffff021916908373ffffffffffffffffffffffffffffffffffffffff16021790555042600681905550804201600781905550600060048190555060006005819055505050610114565b604051610b1380610fc883390190565b610ea5806101236000396000f3006060604052600436106100d0576000357c0100000000000000000000000000000000000000000000000000000000900463ffffffff168063029073ad146100dd5780631300a6d1146100f2578063171917041461011b5780633197cbb61461014b57806363b20117146101745780636577fe3e1461019d5780636d1b229d146101f257806378e979251461022d57806397304ced146102565780639d63848a14610291578063a4821719146102e6578063ab8f126714610308578063ad11c13114610331578063df05f42e1461035a575b34156100db57600080fd5b005b34156100e857600080fd5b6100f0610387565b005b34156100fd57600080fd5b610105610474565b6040518082815260200191505060405180910390f35b6101316004808035906020019091905050610482565b604051808215151515815260200191505060405180910390f35b341561015657600080fd5b61015e61079e565b6040518082815260200191505060405180910390f35b341561017f57600080fd5b6101876107a4565b6040518082815260200191505060405180910390f35b34156101a857600080fd5b6101b06107aa565b604051808273ffffffffffffffffffffffffffffffffffffffff1673ffffffffffffffffffffffffffffffffffffffff16815260200191505060405180910390f35b34156101fd57600080fd5b61021360048080359060200190919050506107d0565b604051808215151515815260200191505060405180910390f35b341561023857600080fd5b6102406108eb565b6040518082815260200191505060405180910390f35b341561026157600080fd5b61027760048080359060200190919050506108f1565b604051808215151515815260200191505060405180910390f35b341561029c57600080fd5b6102a4610a0c565b604051808273ffffffffffffffffffffffffffffffffffffffff1673ffffffffffffffffffffffffffffffffffffffff16815260200191505060405180910390f35b6102ee610a32565b604051808215151515815260200191505060405180910390f35b341561031357600080fd5b61031b610da0565b6040518082815260200191505060405180910390f35b341561033c57600080fd5b610344610da6565b6040518082815260200191505060405180910390f35b341561036557600080fd5b61036d610dac565b604051808215151515815260200191505060405180910390f35b600654421080610398575060075442115b156103a257600080fd5b600160009054906101000a900473ffffffffffffffffffffffffffffffffffffffff1673ffffffffffffffffffffffffffffffffffffffff16638f807f6b336040518263ffffffff167c0100000000000000000000000000000000000000000000000000000000028152600401808273ffffffffffffffffffffffffffffffffffffffff1673ffffffffffffffffffffffffffffffffffffffff168152602001915050600060405180830381600087803b151561045e57600080fd5b6102c65a03f1151561046f57600080fd5b505050565b600060065460075403905090565b6000600654421080610495575060075442115b1561049f57600080fd5b81600260009054906101000a900473ffffffffffffffffffffffffffffffffffffffff1673ffffffffffffffffffffffffffffffffffffffff166370a08231336000604051602001526040518263ffffffff167c0100000000000000000000000000000000000000000000000000000000028152600401808273ffffffffffffffffffffffffffffffffffffffff1673ffffffffffffffffffffffffffffffffffffffff168152602001915050602060405180830381600087803b151561056557600080fd5b6102c65a03f1151561057657600080fd5b50505060405180519050111561058f5760009050610799565b7fbb28353e4598c3b9199101a66e0989549b659a59a54d2c27fbb183f1932c8e6d33600354848115156105be57fe5b04604051808373ffffffffffffffffffffffffffffffffffffffff1673ffffffffffffffffffffffffffffffffffffffff1681526020018281526020019250505060405180910390a16003548281151561061457fe5b04600560008282540392505081905550600260009054906101000a900473ffffffffffffffffffffffffffffffffffffffff1673ffffffffffffffffffffffffffffffffffffffff166323b872dd3330856000604051602001526040518463ffffffff167c0100000000000000000000000000000000000000000000000000000000028152600401808473ffffffffffffffffffffffffffffffffffffffff1673ffffffffffffffffffffffffffffffffffffffff1681526020018373ffffffffffffffffffffffffffffffffffffffff1673ffffffffffffffffffffffffffffffffffffffff1681526020018281526020019350505050602060405180830381600087803b151561072557600080fd5b6102c65a03f1151561073657600080fd5b50505060405180519050503373ffffffffffffffffffffffffffffffffffffffff166108fc6003543481151561076857fe5b049081150290604051600060405180830381858888f193505050505081600460008282540392505081905550600190505b919050565b60075481565b60045481565b600160009054906101000a900473ffffffffffffffffffffffffffffffffffffffff1681565b60008060009054906101000a900473ffffffffffffffffffffffffffffffffffffffff1673ffffffffffffffffffffffffffffffffffffffff163373ffffffffffffffffffffffffffffffffffffffff1614151561082d57600080fd5b600260009054906101000a900473ffffffffffffffffffffffffffffffffffffffff1673ffffffffffffffffffffffffffffffffffffffff166342966c68836000604051602001526040518263ffffffff167c010000000000000000000000000000000000000000000000000000000002815260040180828152602001915050602060405180830381600087803b15156108c657600080fd5b6102c65a03f115156108d757600080fd5b505050604051805190505060019050919050565b60065481565b60008060009054906101000a900473ffffffffffffffffffffffffffffffffffffffff1673ffffffffffffffffffffffffffffffffffffffff163373ffffffffffffffffffffffffffffffffffffffff1614151561094e57600080fd5b600260009054906101000a900473ffffffffffffffffffffffffffffffffffffffff1673ffffffffffffffffffffffffffffffffffffffff1663a0712d68836000604051602001526040518263ffffffff167c010000000000000000000000000000000000000000000000000000000002815260040180828152602001915050602060405180830381600087803b15156109e757600080fd5b6102c65a03f115156109f857600080fd5b505050604051805190505060019050919050565b600260009054906101000a900473ffffffffffffffffffffffffffffffffffffffff1681565b6000600654421080610a45575060075442115b15610a4f57600080fd5b3373ffffffffffffffffffffffffffffffffffffffff16600160009054906101000a900473ffffffffffffffffffffffffffffffffffffffff1673ffffffffffffffffffffffffffffffffffffffff16631e2231436000604051602001526040518163ffffffff167c0100000000000000000000000000000000000000000000000000000000028152600401602060405180830381600087803b1515610af457600080fd5b6102c65a03f11515610b0557600080fd5b5050506040518051905073ffffffffffffffffffffffffffffffffffffffff1614158015610bda5750600260009054906101000a900473ffffffffffffffffffffffffffffffffffffffff1673ffffffffffffffffffffffffffffffffffffffff166318160ddd6000604051602001526040518163ffffffff167c0100000000000000000000000000000000000000000000000000000000028152600401602060405180830381600087803b1515610bbc57600080fd5b6102c65a03f11515610bcd57600080fd5b5050506040518051905034115b15610be85760009050610d9d565b7f2499a5330ab0979cc612135e7883ebc3cd5c9f7a8508f042540c34723348f6323334604051808373ffffffffffffffffffffffffffffffffffffffff1673ffffffffffffffffffffffffffffffffffffffff1681526020018281526020019250505060405180910390a134600560008282540192505081905550600260009054906101000a900473ffffffffffffffffffffffffffffffffffffffff1673ffffffffffffffffffffffffffffffffffffffff166323b872dd333060035434026000604051602001526040518463ffffffff167c0100000000000000000000000000000000000000000000000000000000028152600401808473ffffffffffffffffffffffffffffffffffffffff1673ffffffffffffffffffffffffffffffffffffffff1681526020018373ffffffffffffffffffffffffffffffffffffffff1673ffffffffffffffffffffffffffffffffffffffff1681526020018281526020019350505050602060405180830381600087803b1515610d6857600080fd5b6102c65a03f11515610d7957600080fd5b50505060405180519050506003543402600460008282540192505081905550600190505b90565b60055481565b60035481565b60008060009054906101000a900473ffffffffffffffffffffffffffffffffffffffff1673ffffffffffffffffffffffffffffffffffffffff163373ffffffffffffffffffffffffffffffffffffffff16141515610e0957600080fd5b600754421015610e1c5760009050610e76565b6000809054906101000a900473ffffffffffffffffffffffffffffffffffffffff1673ffffffffffffffffffffffffffffffffffffffff166108fc6005549081150290604051600060405180830381858888f19350505050505b905600a165627a7a723058206d9e3adabe4781f4d1a4d125299663d8f2b068c6e46a9ee2745b8146d08f11f100296060604052341561000f57600080fd5b604051602080610b13833981016040528080519060200190919050508060008190555033600160006101000a81548173ffffffffffffffffffffffffffffffffffffffff021916908373ffffffffffffffffffffffffffffffffffffffff16021790555050610a90806100836000396000f30060606040526004361061008e576000357c0100000000000000000000000000000000000000000000000000000000900463ffffffff168063095ea7b31461009b57806318160ddd146100f557806323b872dd1461011e57806342966c681461019757806370a08231146101d2578063a0712d681461021f578063a9059cbb1461025a578063dd62ed3e146102b4575b341561009957600080fd5b005b34156100a657600080fd5b6100db600480803573ffffffffffffffffffffffffffffffffffffffff16906020019091908035906020019091905050610320565b604051808215151515815260200191505060405180910390f35b341561010057600080fd5b610108610412565b6040518082815260200191505060405180910390f35b341561012957600080fd5b61017d600480803573ffffffffffffffffffffffffffffffffffffffff1690602001909190803573ffffffffffffffffffffffffffffffffffffffff16906020019091908035906020019091905050610418565b604051808215151515815260200191505060405180910390f35b34156101a257600080fd5b6101b86004808035906020019091905050610685565b604051808215151515815260200191505060405180910390f35b34156101dd57600080fd5b610209600480803573ffffffffffffffffffffffffffffffffffffffff1690602001909190505061078b565b6040518082815260200191505060405180910390f35b341561022a57600080fd5b61024060048080359060200190919050506107d4565b604051808215151515815260200191505060405180910390f35b341561026557600080fd5b61029a600480803573ffffffffffffffffffffffffffffffffffffffff16906020019091908035906020019091905050610881565b604051808215151515815260200191505060405180910390f35b34156102bf57600080fd5b61030a600480803573ffffffffffffffffffffffffffffffffffffffff1690602001909190803573ffffffffffffffffffffffffffffffffffffffff169060200190919050506109dd565b6040518082815260200191505060405180910390f35b60008273ffffffffffffffffffffffffffffffffffffffff163373ffffffffffffffffffffffffffffffffffffffff167f8c5be1e5ebec7d5bd14f71427d1e84f3dd0314c0f7b2291e5b200ac8c7c3b925846040518082815260200191505060405180910390a381600360003373ffffffffffffffffffffffffffffffffffffffff1673ffffffffffffffffffffffffffffffffffffffff16815260200190815260200160002060008573ffffffffffffffffffffffffffffffffffffffff1673ffffffffffffffffffffffffffffffffffffffff168152602001908152602001600020819055506001905092915050565b60005481565b600081600360008673ffffffffffffffffffffffffffffffffffffffff1673ffffffffffffffffffffffffffffffffffffffff16815260200190815260200160002060003373ffffffffffffffffffffffffffffffffffffffff1673ffffffffffffffffffffffffffffffffffffffff1681526020019081526020016000205410806104e2575081600260008673ffffffffffffffffffffffffffffffffffffffff1673ffffffffffffffffffffffffffffffffffffffff16815260200190815260200160002054105b156104f0576000905061067e565b8273ffffffffffffffffffffffffffffffffffffffff168473ffffffffffffffffffffffffffffffffffffffff167fddf252ad1be2c89b69c2b068fc378daa952ba7f163c4a11628f55a4df523b3ef846040518082815260200191505060405180910390a381600260008673ffffffffffffffffffffffffffffffffffffffff1673ffffffffffffffffffffffffffffffffffffffff1681526020019081526020016000206000828254039250508190555081600360008673ffffffffffffffffffffffffffffffffffffffff1673ffffffffffffffffffffffffffffffffffffffff16815260200190815260200160002060003373ffffffffffffffffffffffffffffffffffffffff1673ffffffffffffffffffffffffffffffffffffffff1681526020019081526020016000206000828254039250508190555081600260008573ffffffffffffffffffffffffffffffffffffffff1673ffffffffffffffffffffffffffffffffffffffff16815260200190815260200160002060008282540192505081905550600190505b9392505050565b600081600260003373ffffffffffffffffffffffffffffffffffffffff1673ffffffffffffffffffffffffffffffffffffffff1681526020019081526020016000205410156106d75760009050610786565b3373ffffffffffffffffffffffffffffffffffffffff167f696de425f79f4a40bc6d2122ca50507f0efbeabbff86a84871b7196ab8ea8df7836040518082815260200191505060405180910390a281600260003373ffffffffffffffffffffffffffffffffffffffff1673ffffffffffffffffffffffffffffffffffffffff16815260200190815260200160002060008282540392505081905550816000808282540392505081905550600190505b919050565b6000600260008373ffffffffffffffffffffffffffffffffffffffff1673ffffffffffffffffffffffffffffffffffffffff168152602001908152602001600020549050919050565b6000600160009054906101000a900473ffffffffffffffffffffffffffffffffffffffff1673ffffffffffffffffffffffffffffffffffffffff163373ffffffffffffffffffffffffffffffffffffffff1614151561083257600080fd5b7f176b02bb2d12439ff7a20b59f402cca16c76f50508b13ef3166a600eb719354a826040518082815260200191505060405180910390a181600080828254019250508190555060019050919050565b600081600260003373ffffffffffffffffffffffffffffffffffffffff1673ffffffffffffffffffffffffffffffffffffffff1681526020019081526020016000205410156108d357600090506109d7565b8273ffffffffffffffffffffffffffffffffffffffff163373ffffffffffffffffffffffffffffffffffffffff167fddf252ad1be2c89b69c2b068fc378daa952ba7f163c4a11628f55a4df523b3ef846040518082815260200191505060405180910390a381600260003373ffffffffffffffffffffffffffffffffffffffff1673ffffffffffffffffffffffffffffffffffffffff1681526020019081526020016000206000828254039250508190555081600260008573ffffffffffffffffffffffffffffffffffffffff1673ffffffffffffffffffffffffffffffffffffffff16815260200190815260200160002060008282540192505081905550600190505b92915050565b6000600360008473ffffffffffffffffffffffffffffffffffffffff1673ffffffffffffffffffffffffffffffffffffffff16815260200190815260200160002060008373ffffffffffffffffffffffffffffffffffffffff1673ffffffffffffffffffffffffffffffffffffffff168152602001908152602001600020549050929150505600a165627a7a72305820c2be1feb185a23fda49dcd2ced569257a0a3f1465fe6de3abc225e8a48c1b2050029",
  "source": "pragma solidity ^0.4.15;\n\nimport './Queue.sol';\nimport './Token.sol';\n\n/**\n * @title Crowdsale\n * @dev Contract that deploys `Token.sol`\n * Is timelocked, manages buyer queue, updates balances on `Token.sol`\n */\n\ncontract Crowdsale {\n\n\taddress owner;\n    Queue public buyers;\n\tToken public tokens;\n    uint public worth;\n\tuint public totalTokensSold;\n    uint public totalMoneyObtained;\n\n\tuint public startTime;\n    uint public endTime;\n\n    event Purchase(address _purchaser, uint256 _value);\n    event Refund(address _refunder, uint256 _value);\n\n    modifier ownerOnly() {\n        if (msg.sender != owner) {\n            throw;\n        }\n        _;\n    }\n\n    modifier onTime() {\n        if (now < startTime || now > endTime) {\n            throw;\n        }\n        _;\n    }\n\n    function Crowdsale(uint _totalSupply, uint _saleTime) public {\n        owner = msg.sender;\n        tokens = new Token(_totalSupply);\n        startTime = now;\n        endTime = now + _saleTime;\n        totalTokensSold = 0;\n        totalMoneyObtained = 0;\n    }\n\n    function timeLeft() public returns (uint) {\n        return endTime - startTime;\n    }\n\n    function mintTokens(uint256 _value) ownerOnly returns (bool success) {\n        tokens.mint(_value);\n        return true;\n    }\n\n    function burnTokens(uint256 _value) ownerOnly returns (bool success) {\n        tokens.burn(_value);\n        return true;\n    }\n\n    // buyToken will take in Wei\n    function buyToken() onTime payable external returns (bool success) {\n        if (buyers.getFirst() != msg.sender && msg.value > tokens.totalSupply()) {\n            return false;\n        } else {\n            Purchase(msg.sender, msg.value);\n            totalMoneyObtained += msg.value;\n            tokens.transferFrom(msg.sender, this, msg.value * worth);\n            totalTokensSold += msg.value * worth;\n            return true;\n        }\n    }\n\n    // refundToken will take in Tokens\n    function refundToken(uint _value) onTime payable external returns (bool success) {\n        if (tokens.balanceOf(msg.sender) > _value) {\n            return false;\n        } else {\n            Refund(msg.sender, _value / worth);\n            totalMoneyObtained -= _value / worth;\n            tokens.transferFrom(msg.sender, this, _value);\n            msg.sender.send(msg.value / worth);\n            totalTokensSold -= _value;\n            return true;\n        }\n    }\n\n    function transferOwner() ownerOnly returns (bool success) {\n        if (now < endTime) {\n            return false;\n        } else {\n            owner.send(totalMoneyObtained);\n        }\n    }\n\n    function enterQueue() onTime public {\n        buyers.enqueue(msg.sender);\n    }\n\n    function () {\n\n    }\n}\n",
  "sourcePath": "/Users/kfonseca/Documents/Blockchain/sp18-midterm-p1/contracts/Crowdsale.sol",
  "compiler": {
    "name": "solc",
    "version": "0.4.19+commit.c4cbbb05.Emscripten.clang"
  },
  "schemaVersion": "1.0.1",
  "updatedAt": "2018-03-08T23:11:14.270Z"
}