{
  "contractName": "Queue",
  "abi": [
    {
      "inputs": [
        {
          "name": "_time_limit",
          "type": "uint8"
        }
      ],
      "payable": false,
      "stateMutability": "nonpayable",
      "type": "constructor"
    },
    {
      "payable": false,
      "stateMutability": "nonpayable",
      "type": "fallback"
    },
    {
      "anonymous": false,
      "inputs": [
        {
          "indexed": false,
          "name": "",
          "type": "address"
        }
      ],
      "name": "removed",
      "type": "event"
    },
    {
      "constant": true,
      "inputs": [],
      "name": "qsize",
      "outputs": [
        {
          "name": "",
          "type": "uint8"
        }
      ],
      "payable": false,
      "stateMutability": "view",
      "type": "function"
    },
    {
      "constant": true,
      "inputs": [],
      "name": "empty",
      "outputs": [
        {
          "name": "",
          "type": "bool"
        }
      ],
      "payable": false,
      "stateMutability": "view",
      "type": "function"
    },
    {
      "constant": true,
      "inputs": [],
      "name": "getFirst",
      "outputs": [
        {
          "name": "",
          "type": "address"
        }
      ],
      "payable": false,
      "stateMutability": "view",
      "type": "function"
    },
    {
      "constant": true,
      "inputs": [],
      "name": "checkPlace",
      "outputs": [
        {
          "name": "",
          "type": "uint8"
        }
      ],
      "payable": false,
      "stateMutability": "view",
      "type": "function"
    },
    {
      "constant": false,
      "inputs": [],
      "name": "checkTime",
      "outputs": [],
      "payable": false,
      "stateMutability": "nonpayable",
      "type": "function"
    },
    {
      "constant": false,
      "inputs": [],
      "name": "dequeue",
      "outputs": [],
      "payable": false,
      "stateMutability": "nonpayable",
      "type": "function"
    },
    {
      "constant": false,
      "inputs": [
        {
          "name": "addr",
          "type": "address"
        }
      ],
      "name": "enqueue",
      "outputs": [],
      "payable": false,
      "stateMutability": "nonpayable",
      "type": "function"
    }
  ],
  "bytecode": "0x606060405260056001806101000a81548160ff021916908360ff160217905550341561002a57600080fd5b60405160208061084b833981016040528080519060200190919050506001809054906101000a900460ff1660ff166040518059106100655750595b90808252806020026020018201604052506000908051906020019061008b9291906100b8565b506000600160006101000a81548160ff021916908360ff1602179055508060ff1660028190555050610185565b828054828255906000526020600020908101928215610131579160200282015b828111156101305782518260006101000a81548173ffffffffffffffffffffffffffffffffffffffff021916908373ffffffffffffffffffffffffffffffffffffffff160217905550916020019190600101906100d8565b5b50905061013e9190610142565b5090565b61018291905b8082111561017e57600081816101000a81549073ffffffffffffffffffffffffffffffffffffffff021916905550600101610148565b5090565b90565b6106b7806101946000396000f300606060405260043610610083576000357c0100000000000000000000000000000000000000000000000000000000900463ffffffff1680631e223143146100905780633e3c9eae146100e55780638f807f6b14610114578063957908d11461014d578063ad7d59fc14610162578063e0c6190d14610191578063f2a75fe4146101a6575b341561008e57600080fd5b005b341561009b57600080fd5b6100a36101d3565b604051808273ffffffffffffffffffffffffffffffffffffffff1673ffffffffffffffffffffffffffffffffffffffff16815260200191505060405180910390f35b34156100f057600080fd5b6100f8610215565b604051808260ff1660ff16815260200191505060405180910390f35b341561011f57600080fd5b61014b600480803573ffffffffffffffffffffffffffffffffffffffff1690602001909190505061022c565b005b341561015857600080fd5b61016061030e565b005b341561016d57600080fd5b6101756104f2565b604051808260ff1660ff16815260200191505060405180910390f35b341561019c57600080fd5b6101a46105b8565b005b34156101b157600080fd5b6101b961066f565b604051808215151515815260200191505060405180910390f35b60008060008154811015156101e457fe5b906000526020600020900160009054906101000a900473ffffffffffffffffffffffffffffffffffffffff16905090565b6000600160009054906101000a900460ff16905090565b6001809054906101000a900460ff1660ff16610246610215565b60ff16141561025457600080fd5b61025c61066f565b1561026d574260038190555061030b565b806000600160009054906101000a900460ff1660ff1681548110151561028f57fe5b906000526020600020900160006101000a81548173ffffffffffffffffffffffffffffffffffffffff021916908373ffffffffffffffffffffffffffffffffffffffff1602179055506001600081819054906101000a900460ff168092919060010191906101000a81548160ff021916908360ff160217905550505b50565b6000806000600160009054906101000a900460ff1660ff1681548110151561033257fe5b906000526020600020900160006101000a81548173ffffffffffffffffffffffffffffffffffffffff021916908373ffffffffffffffffffffffffffffffffffffffff160217905550600090505b60018060009054906101000a900460ff160360ff168160ff1610156104485760006001820160ff168154811015156103b457fe5b906000526020600020900160009054906101000a900473ffffffffffffffffffffffffffffffffffffffff1660008260ff168154811015156103f257fe5b906000526020600020900160006101000a81548173ffffffffffffffffffffffffffffffffffffffff021916908373ffffffffffffffffffffffffffffffffffffffff1602179055508080600101915050610380565b60008060018060009054906101000a900460ff160360ff1681548110151561046c57fe5b906000526020600020900160006101000a81548173ffffffffffffffffffffffffffffffffffffffff021916908373ffffffffffffffffffffffffffffffffffffffff1602179055506001600081819054906101000a900460ff16809291906001900391906101000a81548160ff021916908360ff160217905550504260038190555050565b600080600090505b6001809054906101000a900460ff1660ff168160ff16101561059f573373ffffffffffffffffffffffffffffffffffffffff1660008260ff1681548110151561053f57fe5b906000526020600020900160009054906101000a900473ffffffffffffffffffffffffffffffffffffffff1673ffffffffffffffffffffffffffffffffffffffff161415610592576001810191506105b4565b80806001019150506104fa565b60018060019054906101000a900460ff160191505b5090565b600254600354014210151561066d577f42f674ffe71b6b5d73c1d16b735004cf7a34b603f8115ea5233160f0f996af6a6000808154811015156105f757fe5b906000526020600020900160009054906101000a900473ffffffffffffffffffffffffffffffffffffffff16604051808273ffffffffffffffffffffffffffffffffffffffff1673ffffffffffffffffffffffffffffffffffffffff16815260200191505060405180910390a161066c61030e565b5b565b600080600160009054906101000a900460ff1660ff16149050905600a165627a7a72305820d728846ae9f9a3d99c451b865625111378289fa12cfe053b4c2f4704370c8eba0029",
  "source": "pragma solidity ^0.4.15;\n\n/**\n * @title Queue\n * @dev Data structure contract used in `Crowdsale.sol`\n * Allows buyers to line up on a first-in-first-out basis\n * See this example: http://interactivepython.org/courselib/static/pythonds/BasicDS/ImplementingaQueueinPython.html\n */\n\ncontract Queue {\n\t/* State variables */\n    address[] data;\n    uint8 pointer;\n\tuint8 size = 5;\n    uint time_limit;\n    uint time_spent;\n\t// YOUR CODE HERE\n    event removed(address);\n\t// YOUR CODE HERE\n\n\t/* Add constructor */\n    function Queue(uint8 _time_limit) public {\n        data = new address[](size);\n        pointer = 0;\n        time_limit = _time_limit;\n    }\n\n\t/* Returns the number of people waiting in line */\n\tfunction qsize() constant returns(uint8) {\n\t\t// YOUR CODE HERE\n        return pointer;\n\t}\n\n\t/* Returns whether the queue is empty or not */\n\tfunction empty() constant returns(bool) {\n\t\t// YOUR CODE HERE\n\t\treturn pointer == 0;\n\t}\n\n\t/* Returns the address of the person in the front of the queue */\n\tfunction getFirst() constant returns(address) {\n\t\treturn data[0];\n\t}\n\n\t/* Allows `msg.sender` to check their position in the queue */\n\tfunction checkPlace() constant returns(uint8) {\n\t    for (uint8 i = 0; i < size; i++) {\n            if (data[i] == msg.sender) {\n                return i + 1;\n            }\n        }\n        return size + 1;\n\t}\n\n\t/* Allows anyone to expel the first person in line if their time\n\t * limit is up\n\t */\n\tfunction checkTime() {\n        if (now >= time_spent + time_limit) {\n            removed(data[0]);\n            dequeue();\n        }\n\t}\n\n\t/* Removes the first person in line; either when their time is up or when\n\t * they are done with their purchase\n\t */\n\tfunction dequeue() {\n        data[pointer] = address(0x0);\n        for (uint8 i = 0; i < pointer - 1; i++) {\n            data[i] = data[i + 1];\n        }\n        data[pointer - 1] = 0;\n        pointer--;\n        time_spent = now;\n    }\n\n\t/* Places `addr` in the first empty position in the queue */\n\tfunction enqueue(address addr) {\n\t\tif (qsize() == size) {\n            throw;\n        } else if (empty()) {\n            time_spent = now;\n        } else {\n            data[pointer] = addr; \n            pointer++;\n        }\n\t}\n\n    function () {\n\n    }\n}\n",
  "sourcePath": "/Users/kfonseca/Documents/Blockchain/sp18-midterm-p1/contracts/Queue.sol",
  "compiler": {
    "name": "solc",
    "version": "0.4.19+commit.c4cbbb05.Emscripten.clang"
  },
  "schemaVersion": "1.0.1",
  "updatedAt": "2018-03-08T23:11:14.274Z"
}